:1000000069C1000082C1000080C100007EC1000003
:100010007CC100007AC1000078C1000076C10000F8
:1000200074C1000072C100000C948D08F4C6000079
:100030006CC100006AC1000068C1000066C1000018
:1000400064C1000062C1000060C100005EC1000028
:100050005CC100005AC1000058C1000004C6000085
:1000600054C1000052C1000050C100004EC1000048
:100070004CC100004AC1000048C1000046C1000058
:1000800044C1000042C1000040C100003EC1000068
:100090003CC100003AC1000038C1000036C1000078
:1000A00034C1000032C1000030C10000012302232E
:1000B0000423082380230129022904290829402632
:1000C000802640298029102320234023802F402F81
:1000D000202F102F022F012F10292029402C7DFDC9
:1000E0007DFB7DF77DEF7DDF7E7F7EBF7EDF7EEF58
:1000F0007EFD7EFE7DFE0001040506070D0C0B0A49
:1001000009080A0B0C0D0706050401000800010090
:100110000041011200020000530143000300009659
:100120000104010309049A011802030904B4011629
:1001300003030904CC010C0001C1020180360181D6
:10014000361201000202000020C0168304000101E3
:1001500002030109024300020100C0320904000049
:100160000102020100052400100105240100010420
:100170002402060524060001070582030800400941
:10018000040100020A000000070503024000000706
:1001900005840240000004030904180354006500AC
:1001A00065006E00730079006400750069006E00E0
:1001B0006F0000001603550053004200200053005A
:1001C00065007200690061006C0000000C033100E2
:1001D0003200330034003500000000407A10F35A3A
:1001E00000A0724E18090010A5D4E80000E8764877
:1001F000170000E40B54020000CA9A3B000000E123
:10020000F505000080969800000040420F000000B5
:10021000A08601000000102700000000E803000095
:1002200000006400000000000A000000000001005F
:10023000000000002C76D888DC674F0823DFC1DF80
:10024000AE59E1B1B796E5E3E453C63AE651997683
:1002500096E8E6C28426EB898C9B62ED407C6FFCBD
:10026000EFBC9C9F40F2BAA56FA5F490055A2AF7FF
:100270005C936B6CF9676DC11BFCE0E40D47FEF508
:1002800020E6B500D0ED902E030094357705008070
:10029000841E080000204E0A000000C80C333333CF
:1002A000330F986E12831141EF8D2114893BE6556F
:1002B00016CFFEE6DB18D1844B381BF77C1D901D52
:1002C000A4BBE424203284725E228100C9F124ECB4
:1002D000A1E53D2711241FBECFEFDAE0DEBFCDBF81
:1002E00013E0A0E0B1E0E2E0F3E102C005900D927E
:1002F000A231B107D9F713E0A2E1B3E001C01D922A
:10030000A732B107E1F783D7FAC77ACEEF92FF920F
:100310000F931F93F22FF02E47FD02C0E4E001C0BF
:10032000E4E1242F332727FD309537FF03C03095B4
:1003300021953F4F4F2D512F0F2FEE2E07D08F2D90
:10034000912F1F910F91FF90EF900895A9E0B0E0D9
:10035000EBEAF1E0A1C76A01122FA02EBE2C2BE31D
:10036000201718F42CE3922E02C0902E9394AE0125
:100370004F5F5F4F27E0092D48D1BC018981E82EEE
:10038000FF24C70189709070019711F4ADE209C094
:10039000B1FE02C0ABE205C0B0FC02C0A0E001C0EB
:1003A000A0E2E3FE3BC0AA2311F423E001C024E055
:1003B000211710F020E002C0121B212FEB2CB4FEFD
:1003C00002C0322F0AC0F601322F80E202C08193B0
:1003D00031503323E1F7C20ED11CAA2319F0F601E4
:1003E000A1936F01F6013196E2FE05C09EE4D601AD
:1003F0009C9381E404C09EE6D6019C9381E611960D
:100400008C9391833296DF01832F90E202C09D93FB
:1004100081508823E1F7E30FF11D40C0E2FE42C0A6
:10042000AA2311F423E001C024E0211710F020E0FA
:1004300002C0121B212FEB2CB4FE02C0922F0AC067
:10044000F601922F80E202C0819391509923E1F747
:10045000C20ED11CAA2319F0F601A1936F01F60177
:100460003196E2FE08C089E4D6018C938EE41196A1
:100470008C9386E407C089E6D6018C938EE61196AC
:100480008C9386E681833296DF01892F20E202C0B9
:100490002D9381508823E1F7E90FF11D10822EEF93
:1004A0003FEFAFC0161617061CF041E050E003C046
:1004B000AB014F5F5F4FAA2019F480E090E003C0CA
:1004C0008A2D90E0019620E030E0AA2311F021E08F
:1004D00030E0240F351F280F391F812F90E0281797
:1004E000390714F020E002C0121B212F4B2D50E0E1
:1004F000CA0180719070B4FC0DC0B3FC0BC0F60152
:10050000322F40E202C0419331503323E1F7C20E53
:10051000D11C01C0322FAA2319F0F601A1936F015B
:10052000892B11F0132F0AC0F601132F80E302C0AC
:10053000819311501123E1F7C30ED11C092D060F31
:10054000BA8090E1892E912C8E209F20E4FE04C079
:10055000F1E3BF1609F40150101614F001E003C0D6
:10056000093008F008E09B0177FF02C020E030E08E
:10057000CB010196821B930BFE013196E80FF91F08
:100580008EE2F82E3B01601A71088A2D90E0442714
:100590005527481B590B8FEF2F3F380719F4D60109
:1005A000FD926D01621773072CF06216730614F446
:1005B000808101C080E321503040319624173507F7
:1005C00024F0D6018D936D01E6CF2617370749F445
:1005D000B5E3BB1528F0BB1621F48114910409F48E
:1005E00081E3F6018193D601812F90E202C09C93B2
:1005F000815011968823D9F7E10FF11D108220E078
:1006000030E0C9012996EEE063C6283008F027E003
:100610003327DA01990F311D87FD9160009661053E
:10062000710539F432602E5F3D9330E32A95E1F78E
:1006300008959F3F30F080387105610509F03C5FF7
:100640003C5F3D93913008F08068911DDF93CF931C
:100650001F930F93FF92EF92192F987F9695E92F92
:1006600096959695E90FFF27EC5CFD4F9927332768
:10067000EE24FF24A701E70105900894079428F4CD
:10068000360FE71EF81E491F511D660F771F881F82
:10069000991F0694A1F70590079428F4E70EF81E19
:1006A000491F561FC11D770F881F991F661F06948B
:1006B000A1F70590079428F4F80E491F561FC71F8D
:1006C000D11D880F991F661F771F0694A1F705900B
:1006D000079420F4490F561FC71FD81F990F661F94
:1006E000771F881F0694A9F784911095177041F021
:1006F000D695C79557954795F794E7941A95C1F7FE
:10070000EAEDF1E068941590159135916591959118
:1007100005907FE27395E118F10A430B560BC90B64
:10072000D009C0F7E10CF11E431F561FC91FD01D91
:100730007EF4703311F48A95E6CFE894015030F0DE
:10074000080F0AF40027021708F4202F2395022F20
:100750007A3328F079E37D932A95E9F710C07D93E9
:100760002A9589F606949795679537951795179466
:10077000E118F10A430B560BC90BD00998F02395E9
:100780007E9173957A3308F070E37C932013B8F769
:100790007E9170617D9330F0839571E37D9370E37A
:1007A0002A95E1F71124EF90FF900F911F91CF91BF
:1007B000DF91992787FD90950895462F882311F0A2
:1007C0002D9A01C02D98809180008F7780938000B2
:1007D0005F988091C200877F8093C2008FE060E1C4
:1007E000B3D25F9A8091C200877F8093C200089540
:1007F0001F93162F682F606880E0DFDF106480E0B1
:10080000612FDBDF1F910895579A249A259A269A23
:10081000879A2C985F9AE2ECF0E08081877F808352
:1008200068EE73E080E090E05ED22C9A80E061E2B6
:10083000C4DF80E06FEBC1DF80E064E0BEDF80E01A
:1008400064E1BBDF80E06CE0B8DF80E060E2B5DF50
:1008500080E06CE0B2CFCF93DF93229A239A569A2E
:10086000C5E1D1E0888115D18881E82FF0E02BD156
:10087000229681E0C932D807A9F72A982B985E986A
:10088000C3DFDF91CF910895CF93DF93C0E0D0E035
:1008900081E060E092DF219681E0C83FD807C1F790
:1008A000DF91CF9108950F931F93CF93DF93182F6C
:1008B00081E060E082DF812F992787FD9095809706
:1008C000EC01CC0FDD1FCC0FDD1FC80FD91FCF5C93
:1008D000DE4F85E01802800111240A561F4F81E087
:1008E00069916BDFC017D107D1F781E060E065DF68
:1008F000DF91CF911F910F910895CF93DF93EC017A
:1009000002C02196D0DF88818823D9F7DF91CF916B
:1009100008950F931F932A982B9885E16ED090939A
:10092000130380931203B0DF8CE090E060E070E08E
:100930005FDF80E091E0E1DF80E190E065E070E082
:1009400057DF8AE091E0D9DF6091120370911303C1
:10095000882777FD8095982F60D442E020E006E15B
:1009600013E0D4DCC801C9DF189B09C080E090E027
:1009700062E070E03DDF8FE091E0BFDF2A9A199BD3
:1009800009C087E490E062E070E032DF82E191E04C
:10099000B4DF2B9A2091140330911503A5E1B1E047
:1009A00080E090E04C918217930721F4E42FF0E06F
:1009B00084D003C0E42FF0E086D0019612968A30EE
:1009C000910581F72A30310529F410921503109210
:1009D000140306C02F5F3F4F309315032093140379
:1009E0004E9B09C05E9864E670E080E090E07BD1A9
:1009F0001F910F9108955E9AF6CF873118F020E08D
:100A000030E045C0E82FF0E0EA50FF4FE49140911C
:100A10002901E830A0F480917E0021E030E00E2E24
:100A200002C0220F331F0A94E2F7822B80937E00CC
:100A300080E880937B00E42BE0937C0015C03E2F80
:100A4000385020917D0081E090E0032E02C0880F95
:100A5000991F0A94E2F7282B20937D0080EA809367
:100A60007B00342B30937C0080917A0080648093EB
:100A70007A0080917A0086FDFCCF30917800209139
:100A80007900922F80E0232F30E0282B392BC901E9
:100A90000895893170F4ECEAF0E0880FE80FF11D59
:100AA0009591E491F0E02FB7F8948181892B8183AF
:100AB0002FBF0895002039F000C0E93150F4EE0F47
:100AC000E659FA4F0994E93120F4EE0FE456FA4F53
:100AD00009940895289A0895299A08952A9A0895BC
:100AE0002B9A08952F9A6AC0589A58C0599A089517
:100AF0005A9A08955B9A0895469A66C0479A6AC0C2
:100B00005E9A08955F9A6CC02C9A08952D9A4AC0F7
:100B10002E9A4EC08F9A08958E9A08958D9A0895B0
:100B20008C9A0895899A0895889A08955C9A0895F0
:100B30005D9A0895769A08952898089529980895B9
:100B40002A9808952B9808952F9838C0589826C051
:100B5000599808955A9808955B980895469834C016
:100B6000479838C05E9808955F983AC02C980895C9
:100B70002D9818C02E981CC08F9808958E980895AF
:100B80008D9808958C980895899808958898089567
:100B90005C9808955D98089576980895E4B5EF7D82
:100BA000E4BD0895E0918000EF77E0938000089520
:100BB000E0918000EF7DE09380000895E091800057
:100BC000E77FE09380000895E0919000EF77E09355
:100BD00090000895E091C000EF77E093C000089581
:100BE000E091C200E77FE093C20008951DBA109221
:100BF00068001CBC10BE1FBA10927A0010926E00E2
:100C000010926F0010927100109272001092C90041
:100C1000ECEBF0E0108214B817B81AB81DB810BA8F
:100C2000108215B818B81BB81EB811BA0895F894F8
:100C300080E29EE40197F1F781E08093E00080E29A
:100C40008093D80080E69AEE0197F1F7CFDF0C94FD
:100C5000003FFFCFF894CADF80E69AEE0197F1F7E4
:100C60000C940000FFCF8F938FB78F938091240354
:100C70008D5F8D37D0F480932403809120038F5FA4
:100C800080932003D8F0809121038F4F809321031C
:100C9000A8F0809122038F4F8093220378F08091F7
:100CA00023038F4F8093230309C08D578093240320
:100CB000809120038E5F8093200328F780911C038E
:100CC0008C5F80931C0358F080911D038F4F80939D
:100CD0001D0328F080911E038F4F80931E038F9178
:100CE0008FBF8F9118959B01AC0114D0FB010CC0F4
:100CF00011D06E1B7F0B685E7340D0F321503040E3
:100D000040405040E851FC4F211531054105510547
:100D100079F708950FB6F89466B515B270911C0373
:100D200080911D0390911E030FBE10FE05C06F3F02
:100D300019F07C5F8F4F9F4F11240024660F001C19
:100D4000660F001C7029089590E820E030E0A82F7D
:100D5000B0E070E0892F8423FD01082EABDEFB019B
:100D6000ACDEFB01B0DE96952F5F3F4F283031059A
:100D700089F70895F894E1E6F0E020E820831082F6
:100D800083E084BD85BDEEE6F0E0808181608083F4
:100D900091E09093800082E0809381009093900096
:100DA000809391008093C00084E08093C100909371
:100DB000C2009093C3001092C40086E880937A002A
:100DC00020937B0010927E0010927D0002D07894D8
:100DD00008958091D80087FF02C085FF1BC081E085
:100DE0008093D70080EA8093D80082E189BD09B45E
:100DF00000FEFDCF80E98093D8001092E0001092B1
:100E0000270310922803109229031092E1008DE02D
:100E10008093E20008951F920F920FB60F92112453
:100E20002F933F934F935F936F937F938F939F93F2
:100E3000AF93BF93EF93FF931092E9008091E80086
:100E400083FF57C12091F1009091F1004091F10092
:100E50005091F1006091F1007091F100A091F100CA
:100E6000B091F10082EF8093E800963009F044C021
:100E7000EDE0F1E020E0859195918417950711F060
:100E8000359617C0859195918617970711F033967F
:100E900010C0259135914491CD01AF3FB10519F0B6
:100EA00010F08FEF90E0841708F4482FF9015EEFFF
:100EB00004C02F5F2630F9F61CC18091E800282F6E
:100EC00030E0C90185709070892BB9F322FD14C1FF
:100ED000242F413208F020E2922F04C085918093A4
:100EE000F10091509923D1F7421B5093E80044231D
:100EF00021F7203211F300C1953061F48EEF809319
:100F0000E8008091E80080FFFCCF842F8068809308
:100F1000E300F2C0993009F5222309F0EAC04093BA
:100F2000270310922903109225038EEF8093E80087
:100F3000E7E3F1E091E09093E90085918093EB0085
:100F4000882331F085918093EC0085918093ED00AA
:100F50009F5F953081F78EE1C7C0983061F42038EB
:100F600009F0C7C08091E80080FFFCCF8091270383
:100F70008093F10096C09132A9F4213A09F0B9C0EA
:100F80008091E80080FFFCCF20E030E0F901E65DD1
:100F9000FE4F80818093F1002F5F3F4F2730310556
:100FA000A9F77FC0903209F04BC0213209F0A1C0EF
:100FB0008091E80082FFFCCF20E030E0F901E65D9F
:100FC000FE4F8091F10080832F5F3F4F2730310526
:100FD000A9F78BEF8093E8008EEF8093E800809173
:100FE0002A0190912B01A0912C01B0912D018638FE
:100FF0009105A105B10519F48FE080932603809136
:101000002A0190912B01A0912C01B0912D018639DC
:101010009105A105B10509F06FC084E08093E90056
:101020002FEF06C02093E8008091E80082FDFCCFFE
:101030008091EE0090E083709070892B99F70ADE22
:10104000923251F4213209F054C040932903809127
:10105000E80080FFFCCF25C0933241F4213209F033
:1010600048C08091E80080FFFCCF1BC09923E9F4C1
:101070008091E80080FFFCCF223811F080E00DC0A5
:101080006093E9008091EB0090E025E096958795CC
:101090002A95E1F781701092E9008093F100109297
:1010A000F1008EEF8093E80027C0913011F093306B
:1010B00001F52230F1F4452BE1F4262F2F77822F12
:1010C00081508630B0F48EEF8093E8002093E900E1
:1010D000933079F089E18093EB0081E090E002C0E9
:1010E000880F991F2A95E2F78093EA001092EA0090
:1010F00003C081E28093EB00FF91EF91BF91AF912C
:101100009F918F917F916F915F914F913F912F911F
:101110000F900FBE0F901F9018951F920F920FB651
:101120000F9211242F933F934F935F936F937F936D
:101130008F939F93AF93BF93EF93FF938091E100C1
:101140001092E100982F83FF11C01092E90081E016
:101150008093EB001092EC0082E28093ED0088E037
:101160008093F000109227031092290392FF1DC074
:10117000809127038823C9F080912503882359F0A3
:10118000815080932503882331F484E08093E90023
:101190008AE38093E80080912603882331F0815010
:1011A00080932603882309F442DD90FF0CC080E180
:1011B0008093E2001092270381E08093280380EA65
:1011C0008093D80019BC80912803882379F094FF7C
:1011D0000DC082E189BD09B400FEFDCF80E9809396
:1011E000D8008DE08093E20010922803FF91EF91E8
:1011F000BF91AF919F918F917F916F915F914F912F
:101200003F912F910F900FBE0F901F901895B2DD58
:1012100022DB7FDBFECFE89409C097FB3EF490957C
:101220008095709561957F4F8F4F9F4F9923A9F0BF
:10123000F92F96E9BB279395F6958795779567954E
:10124000B795F111F8CFFAF4BB0F11F460FF1BC092
:101250006F5F7F4F8F4F9F4F16C0882311F096E925
:1012600011C0772321F09EE8872F762F05C06623D3
:1012700071F096E8862F70E060E02AF09A95660F8C
:10128000771F881FDAF7880F9695879597F9089545
:101290002F923F924F925F926F927F928F929F9286
:1012A000AF92BF92CF92DF92EF92FF920F931F9374
:1012B000CF93DF93CDB7DEB7CA1BDB0B0FB6F89425
:1012C000DEBF0FBECDBF09942A88398848885F8465
:1012D0006E847D848C849B84AA84B984C884DF80D6
:1012E000EE80FD800C811B81AA81B981CE0FD11DBA
:1012F0000FB6F894DEBF0FBECDBFED010895F89490
:02130000FFCF1D
:101302005465656E73794C4344004144433D003C4F
:101312003C003E3E001400130012000A00090008BF
:101322000007000600050004004000E10000000084
:1013320008000000000000005F0000000700070036
:10134200147F147F14242A7F2A122313086462361E
:10135200495522500005030000001C2241000041B3
:10136200221C0014083E081408083E0808005030E9
:101372000000080808080800606000002010080447
:10138200023E5149453E00427F400042615149467A
:101392002141454B311814127F1027454545393CF0
:1013A2004A49493001710905033649494936064916
:1013B20049291E0036360000005636000008142265
:1013C200410014141414140041221408020151099A
:1013D20006324979413E7E1111117E7F49494936D3
:1013E2003E414141227F4141221C7F494949417F7F
:1013F200090909013E4149497A7F0808087F0041ED
:101402007F41002040413F017F081422417F40403C
:1014120040407F020C027F7F0408107F3E41414121
:101422003E7F090909063E4151215E7F091929467D
:10143200464949493101017F01013F4040403F1F78
:101442002040201F3F4038403F63140814630708C0
:101452007008076151494543007F41410002040879
:1014620010200041417F000402010204404040403C
:1014720040000102040020545454787F4844443808
:101482003844444420384444487F3854545418085B
:101492007E0901020C5252523E7F08040478004435
:1014A2007D40002040443D007F1028440000417FE1
:1014B20040007C041804787C0804047838444444CE
:1014C200387C14141408081414187C7C08040408CA
:1014D2004854545420043F4440203C4040207C1C4B
:1014E2002040201C3C4030403C44281028440C50F2
:1014F20050503C4464544C44000836410000007F84
:1015020000000041360800100808100878464146DD
:0215120078005F
:00000001FF
